{
  "fileName": "Inbox.sol",
  "contractName": "Inbox",
  "source": "// SPDX-License-Identifier: MIT\npragma solidity >=0.5.0 <0.7.0;\n// pragma solidty ^0.6.1; //0.5.xx supported only now i guess\n\ncontract Inbox {\n    string public message;\n\n    constructor(string memory initialMessage) public {\n        message = initialMessage;\n    }\n\n    function setMessage(string memory newMessage) public {\n        message = newMessage;\n    }\n}\n",
  "sourcePath": "contracts/Inbox.sol",
  "abi": [
    {
      "inputs": [
        {
          "internalType": "string",
          "name": "initialMessage",
          "type": "string"
        }
      ],
      "stateMutability": "nonpayable",
      "type": "constructor"
    },
    {
      "inputs": [],
      "name": "message",
      "outputs": [
        {
          "internalType": "string",
          "name": "",
          "type": "string"
        }
      ],
      "stateMutability": "view",
      "type": "function"
    },
    {
      "inputs": [
        {
          "internalType": "string",
          "name": "newMessage",
          "type": "string"
        }
      ],
      "name": "setMessage",
      "outputs": [],
      "stateMutability": "nonpayable",
      "type": "function"
    }
  ],
  "bytecode": "0x608060405234801561001057600080fd5b506040516104cb3803806104cb8339818101604052602081101561003357600080fd5b810190808051604051939291908464010000000082111561005357600080fd5b8382019150602082018581111561006957600080fd5b825186600182028301116401000000008211171561008657600080fd5b8083526020830192505050908051906020019080838360005b838110156100ba57808201518184015260208101905061009f565b50505050905090810190601f1680156100e75780820380516001836020036101000a031916815260200191505b50604052505050806000908051906020019061010492919061010b565b50506101b0565b828054600181600116156101000203166002900490600052602060002090601f016020900481019282601f1061014c57805160ff191683800117855561017a565b8280016001018555821561017a579182015b8281111561017957825182559160200191906001019061015e565b5b509050610187919061018b565b5090565b6101ad91905b808211156101a9576000816000905550600101610191565b5090565b90565b61030c806101bf6000396000f3fe608060405234801561001057600080fd5b50600436106100365760003560e01c8063368b87721461003b578063e21f37ce146100f6575b600080fd5b6100f46004803603602081101561005157600080fd5b810190808035906020019064010000000081111561006e57600080fd5b82018360208201111561008057600080fd5b803590602001918460018302840111640100000000831117156100a257600080fd5b91908080601f016020809104026020016040519081016040528093929190818152602001838380828437600081840152601f19601f820116905080830192505050505050509192919290505050610179565b005b6100fe610193565b6040518080602001828103825283818151815260200191508051906020019080838360005b8381101561013e578082015181840152602081019050610123565b50505050905090810190601f16801561016b5780820380516001836020036101000a031916815260200191505b509250505060405180910390f35b806000908051906020019061018f929190610231565b5050565b60008054600181600116156101000203166002900480601f0160208091040260200160405190810160405280929190818152602001828054600181600116156101000203166002900480156102295780601f106101fe57610100808354040283529160200191610229565b820191906000526020600020905b81548152906001019060200180831161020c57829003601f168201915b505050505081565b828054600181600116156101000203166002900490600052602060002090601f016020900481019282601f1061027257805160ff19168380011785556102a0565b828001600101855582156102a0579182015b8281111561029f578251825591602001919060010190610284565b5b5090506102ad91906102b1565b5090565b6102d391905b808211156102cf5760008160009055506001016102b7565b5090565b9056fea26469706673582212204b914241e1d74c51c5117973eccb691a7f6f381d65f8b6eb0794cc0f4823423964736f6c634300060b0033",
  "compiler": {
    "name": "solc",
    "version": "0.6.11+commit.5ef660b1.Emscripten.clang",
    "optimizer": {
      "enabled": false,
      "runs": 200
    },
    "evmVersion": "petersburg"
  }
}